{
  "contractName": "Cryptocase",
  "abi": [
    {
      "constant": true,
      "inputs": [],
      "name": "value",
      "outputs": [
        {
          "name": "",
          "type": "uint256"
        }
      ],
      "payable": false,
      "stateMutability": "view",
      "type": "function"
    },
    {
      "constant": false,
      "inputs": [],
      "name": "Cancel",
      "outputs": [],
      "payable": false,
      "stateMutability": "nonpayable",
      "type": "function"
    },
    {
      "constant": true,
      "inputs": [],
      "name": "buyer",
      "outputs": [
        {
          "name": "",
          "type": "address"
        }
      ],
      "payable": false,
      "stateMutability": "view",
      "type": "function"
    },
    {
      "constant": true,
      "inputs": [],
      "name": "owner",
      "outputs": [
        {
          "name": "",
          "type": "address"
        }
      ],
      "payable": false,
      "stateMutability": "view",
      "type": "function"
    },
    {
      "constant": true,
      "inputs": [],
      "name": "url_img",
      "outputs": [
        {
          "name": "",
          "type": "bytes32"
        }
      ],
      "payable": false,
      "stateMutability": "view",
      "type": "function"
    },
    {
      "constant": false,
      "inputs": [
        {
          "name": "price",
          "type": "uint256"
        }
      ],
      "name": "Sale",
      "outputs": [],
      "payable": false,
      "stateMutability": "nonpayable",
      "type": "function"
    },
    {
      "constant": true,
      "inputs": [],
      "name": "state",
      "outputs": [
        {
          "name": "",
          "type": "uint8"
        }
      ],
      "payable": false,
      "stateMutability": "view",
      "type": "function"
    },
    {
      "constant": false,
      "inputs": [],
      "name": "Order",
      "outputs": [],
      "payable": true,
      "stateMutability": "payable",
      "type": "function"
    },
    {
      "constant": false,
      "inputs": [],
      "name": "Confirm",
      "outputs": [],
      "payable": false,
      "stateMutability": "nonpayable",
      "type": "function"
    },
    {
      "constant": true,
      "inputs": [],
      "name": "holder",
      "outputs": [
        {
          "name": "",
          "type": "address"
        }
      ],
      "payable": false,
      "stateMutability": "view",
      "type": "function"
    },
    {
      "constant": false,
      "inputs": [],
      "name": "Abort",
      "outputs": [],
      "payable": false,
      "stateMutability": "nonpayable",
      "type": "function"
    },
    {
      "inputs": [
        {
          "name": "_url_img",
          "type": "bytes32"
        }
      ],
      "payable": false,
      "stateMutability": "nonpayable",
      "type": "constructor"
    },
    {
      "anonymous": false,
      "inputs": [],
      "name": "Aborted",
      "type": "event"
    },
    {
      "anonymous": false,
      "inputs": [],
      "name": "Confirmed",
      "type": "event"
    },
    {
      "anonymous": false,
      "inputs": [
        {
          "indexed": false,
          "name": "buyer",
          "type": "address"
        },
        {
          "indexed": false,
          "name": "amount",
          "type": "uint256"
        }
      ],
      "name": "Placed",
      "type": "event"
    },
    {
      "anonymous": false,
      "inputs": [],
      "name": "Canceled",
      "type": "event"
    }
  ],
  "bytecode": "0x6060604052341561000f57600080fd5b604051602080610b5783398101604052808051906020019091905050336000806101000a81548173ffffffffffffffffffffffffffffffffffffffff021916908373ffffffffffffffffffffffffffffffffffffffff16021790555033600160006101000a81548173ffffffffffffffffffffffffffffffffffffffff021916908373ffffffffffffffffffffffffffffffffffffffff16021790555080600481600019169055506000600560006101000a81548160ff021916908360028111156100d657fe5b021790555050610a6c806100eb6000396000f3006060604052600436106100af576000357c0100000000000000000000000000000000000000000000000000000000900463ffffffff1680633fa4f245146100b45780634aa8e773146100dd5780637150d8ae146100f25780638da5cb5b14610147578063b7ceacfa1461019c578063c0a8d68d146101cd578063c19d93fb146101f0578063cc7e220814610227578063df35873114610231578063e534155d14610246578063f033b1991461029b575b600080fd5b34156100bf57600080fd5b6100c76102b0565b6040518082815260200191505060405180910390f35b34156100e857600080fd5b6100f06102b6565b005b34156100fd57600080fd5b610105610413565b604051808273ffffffffffffffffffffffffffffffffffffffff1673ffffffffffffffffffffffffffffffffffffffff16815260200191505060405180910390f35b341561015257600080fd5b61015a610439565b604051808273ffffffffffffffffffffffffffffffffffffffff1673ffffffffffffffffffffffffffffffffffffffff16815260200191505060405180910390f35b34156101a757600080fd5b6101af61045e565b60405180826000191660001916815260200191505060405180910390f35b34156101d857600080fd5b6101ee6004808035906020019091905050610464565b005b34156101fb57600080fd5b610203610524565b6040518082600281111561021357fe5b60ff16815260200191505060405180910390f35b61022f610537565b005b341561023c57600080fd5b610244610660565b005b341561025157600080fd5b6102596108be565b604051808273ffffffffffffffffffffffffffffffffffffffff1673ffffffffffffffffffffffffffffffffffffffff16815260200191505060405180910390f35b34156102a657600080fd5b6102ae6108e4565b005b60035481565b60028060028111156102c457fe5b600560009054906101000a900460ff1660028111156102df57fe5b1415156102eb57600080fd5b600260009054906101000a900473ffffffffffffffffffffffffffffffffffffffff1673ffffffffffffffffffffffffffffffffffffffff163373ffffffffffffffffffffffffffffffffffffffff1614151561034757600080fd5b7f1afb0ae590df277bcb3a37f88612725bf1f7df4755792b1548a7efe77985ff7760405160405180910390a1600260009054906101000a900473ffffffffffffffffffffffffffffffffffffffff1673ffffffffffffffffffffffffffffffffffffffff166108fc3073ffffffffffffffffffffffffffffffffffffffff16319081150290604051600060405180830381858888f1935050505015156103ec57600080fd5b6000600560006101000a81548160ff0219169083600281111561040b57fe5b021790555050565b600260009054906101000a900473ffffffffffffffffffffffffffffffffffffffff1681565b6000809054906101000a900473ffffffffffffffffffffffffffffffffffffffff1681565b60045481565b600160009054906101000a900473ffffffffffffffffffffffffffffffffffffffff1673ffffffffffffffffffffffffffffffffffffffff163373ffffffffffffffffffffffffffffffffffffffff161415156104c057600080fd5b60008060028111156104ce57fe5b600560009054906101000a900460ff1660028111156104e957fe5b1415156104f557600080fd5b816003819055506001600560006101000a81548160ff0219169083600281111561051b57fe5b02179055505050565b600560009054906101000a900460ff1681565b600a600c6003540281151561054857fe5b04341480151561055757600080fd5b600180600281111561056557fe5b600560009054906101000a900460ff16600281111561058057fe5b14151561058c57600080fd5b7f7f83844ee16ab57c95950569409b49b833951c60a7115c84e39987ff2e7537283334604051808373ffffffffffffffffffffffffffffffffffffffff1673ffffffffffffffffffffffffffffffffffffffff1681526020018281526020019250505060405180910390a133600260006101000a81548173ffffffffffffffffffffffffffffffffffffffff021916908373ffffffffffffffffffffffffffffffffffffffff1602179055506002600560006101000a81548160ff0219169083600281111561065757fe5b02179055505050565b600280600281111561066e57fe5b600560009054906101000a900460ff16600281111561068957fe5b14151561069557600080fd5b600a600c3073ffffffffffffffffffffffffffffffffffffffff1631028115156106bb57fe5b04600354148015156106cc57600080fd5b6000809054906101000a900473ffffffffffffffffffffffffffffffffffffffff1673ffffffffffffffffffffffffffffffffffffffff163373ffffffffffffffffffffffffffffffffffffffff1614151561072757600080fd5b7f1e393d8f648e647a6dfadc3679e705971550b75e5c722b193a5bae02151894c160405160405180910390a1600160009054906101000a900473ffffffffffffffffffffffffffffffffffffffff1673ffffffffffffffffffffffffffffffffffffffff166108fc6003549081150290604051600060405180830381858888f1935050505015156107b757600080fd5b6000809054906101000a900473ffffffffffffffffffffffffffffffffffffffff1673ffffffffffffffffffffffffffffffffffffffff166108fc6003543073ffffffffffffffffffffffffffffffffffffffff1631039081150290604051600060405180830381858888f19350505050151561083357600080fd5b600260009054906101000a900473ffffffffffffffffffffffffffffffffffffffff16600160006101000a81548173ffffffffffffffffffffffffffffffffffffffff021916908373ffffffffffffffffffffffffffffffffffffffff1602179055506000600560006101000a81548160ff021916908360028111156108b557fe5b02179055505050565b600160009054906101000a900473ffffffffffffffffffffffffffffffffffffffff1681565b60028060028111156108f257fe5b600560009054906101000a900460ff16600281111561090d57fe5b14151561091957600080fd5b6000809054906101000a900473ffffffffffffffffffffffffffffffffffffffff1673ffffffffffffffffffffffffffffffffffffffff163373ffffffffffffffffffffffffffffffffffffffff1614151561097457600080fd5b7f72c874aeff0b183a56e2b79c71b46e1aed4dee5e09862134b8821ba2fddbf8bf60405160405180910390a1600260009054906101000a900473ffffffffffffffffffffffffffffffffffffffff1673ffffffffffffffffffffffffffffffffffffffff166108fc3073ffffffffffffffffffffffffffffffffffffffff16319081150290604051600060405180830381858888f193505050501515610a1957600080fd5b6000600560006101000a81548160ff02191690836002811115610a3857fe5b0217905550505600a165627a7a72305820c96e4e47dda8d9e5fc93dd6fb22394a1fca3b1d041e450b72dceb826f8e0e12f0029",
  "source": "pragma solidity ^0.4.17;\n\ncontract Cryptocase {\n     \n    address public owner;       // Smart contract owner\n    address public holder;      // Cryptocase holder \n    address public buyer;       // Cryptocase buyer\n\n    uint    public value;       // Cryptocase value / price\n    bytes32 public url_img;     // URL for the cryptocase image\n\n    enum State { Created, Sale, Locked }\n    State public state;\n      \n    function Cryptocase(bytes32 _url_img) public {\n        owner = msg.sender;\n        holder = msg.sender;\n        url_img = _url_img;\n        state = State.Created;\n    }\n\n    modifier condition(bool _condition) {\n        require(_condition);\n        _;\n    }\n\n    modifier onlyOwner() {\n        require(msg.sender == owner);\n        _;\n    }\n\n    modifier onlyHolder() {\n        require(msg.sender == holder);\n        _;\n    }\n\n    modifier onlyBuyer() {\n        require(msg.sender == buyer);\n        _;\n    }\n\n    modifier inState(State _state) {\n        require(state == _state);\n        _;\n    }\n\n    event Aborted();\n    event Confirmed();\n    event Placed(address buyer, uint amount);\n    event Canceled();\n\n    function Sale (uint price)\n        public\n        onlyHolder\n        inState(State.Created)\n    {\n        value = price;\n        state = State.Sale;\n    }\n\n    function Order()\n        public\n        condition(msg.value == ((value * 12)/10)) \n        inState(State.Sale)\n        payable\n    {\n        Placed(msg.sender, msg.value);\n\n        buyer = msg.sender;\n        state = State.Locked;\n    }\n\n    function Confirm()\n        public\n        inState(State.Locked)\n        condition(value == ((this.balance * 12)/10)) \n        onlyOwner\n    {\n        Confirmed();\n        \n        holder.transfer(value);\n        owner.transfer(this.balance - value);\n\n        holder = buyer;\n        state = State.Created;\n    }\n\n    function Abort()\n        public\n        inState(State.Locked)\n        onlyOwner        \n    {\n        Aborted();\n\n        buyer.transfer(this.balance);\n        state = State.Created;\n    }\n\n    function Cancel()\n        public\n        inState(State.Locked)\n        onlyBuyer\n    {\n        Canceled();\n\n        buyer.transfer(this.balance);\n        state = State.Created;\n    }\n}\n",
  "sourcePath": "/Users/sergei/todos/private/contracts/Cryptocase.sol",
  "compiler": {
    "name": "solc",
    "version": "0.4.18+commit.9cf6e910.Emscripten.clang"
  },
  "schemaVersion": "1.0.1",
  "updatedAt": "2018-03-05T11:00:27.553Z"
}