{
  "contractName": "IBancorConverterExtensions",
  "abi": [
    {
      "constant": true,
      "inputs": [],
      "name": "formula",
      "outputs": [
        {
          "name": "",
          "type": "address"
        }
      ],
      "payable": false,
      "stateMutability": "view",
      "type": "function"
    },
    {
      "constant": true,
      "inputs": [],
      "name": "gasPriceLimit",
      "outputs": [
        {
          "name": "",
          "type": "address"
        }
      ],
      "payable": false,
      "stateMutability": "view",
      "type": "function"
    },
    {
      "constant": true,
      "inputs": [],
      "name": "quickConverter",
      "outputs": [
        {
          "name": "",
          "type": "address"
        }
      ],
      "payable": false,
      "stateMutability": "view",
      "type": "function"
    }
  ],
  "bytecode": "0x6060604052341561000f57600080fd5b6101968061001e6000396000f300606060405260043610610057576000357c0100000000000000000000000000000000000000000000000000000000900463ffffffff1680634b75f54f1461005c578063961a929c146100b1578063c31e054714610106575b600080fd5b341561006757600080fd5b61006f61015b565b604051808273ffffffffffffffffffffffffffffffffffffffff1673ffffffffffffffffffffffffffffffffffffffff16815260200191505060405180910390f35b34156100bc57600080fd5b6100c4610160565b604051808273ffffffffffffffffffffffffffffffffffffffff1673ffffffffffffffffffffffffffffffffffffffff16815260200191505060405180910390f35b341561011157600080fd5b610119610165565b604051808273ffffffffffffffffffffffffffffffffffffffff1673ffffffffffffffffffffffffffffffffffffffff16815260200191505060405180910390f35b600090565b600090565b6000905600a165627a7a72305820f748abf9e3af6a64b0d5d694a88a7df9e83baf444887641fa7f53a0f40aa714e0029",
  "source": "pragma solidity ^0.4.18;\nimport './IBancorFormula.sol';\nimport './IBancorGasPriceLimit.sol';\nimport './IBancorQuickConverter.sol';\n\n/*\n    Bancor Converter Extensions interface\n*/\ncontract IBancorConverterExtensions {\n    function formula() public view returns (IBancorFormula) {}\n    function gasPriceLimit() public view returns (IBancorGasPriceLimit) {}\n    function quickConverter() public view returns (IBancorQuickConverter) {}\n}",
  "sourcePath": "/Users/sergei/todos/private/contracts/interfaces/IBancorConverterExtensions.sol",
  "compiler": {
    "name": "solc",
    "version": "0.4.18+commit.9cf6e910.Emscripten.clang"
  },
  "schemaVersion": "1.0.1",
  "updatedAt": "2018-03-24T20:55:55.502Z"
}