{
  "contractName": "SmartTokenAdapter",
  "abi": [
    {
      "constant": true,
      "inputs": [],
      "name": "name",
      "outputs": [
        {
          "name": "",
          "type": "string"
        }
      ],
      "payable": false,
      "stateMutability": "view",
      "type": "function"
    },
    {
      "constant": false,
      "inputs": [
        {
          "name": "_spender",
          "type": "address"
        },
        {
          "name": "_value",
          "type": "uint256"
        }
      ],
      "name": "approve",
      "outputs": [
        {
          "name": "success",
          "type": "bool"
        }
      ],
      "payable": false,
      "stateMutability": "nonpayable",
      "type": "function"
    },
    {
      "constant": false,
      "inputs": [
        {
          "name": "_disable",
          "type": "bool"
        }
      ],
      "name": "disableTransfers",
      "outputs": [],
      "payable": false,
      "stateMutability": "nonpayable",
      "type": "function"
    },
    {
      "constant": true,
      "inputs": [],
      "name": "totalSupply",
      "outputs": [
        {
          "name": "",
          "type": "uint256"
        }
      ],
      "payable": false,
      "stateMutability": "view",
      "type": "function"
    },
    {
      "constant": false,
      "inputs": [
        {
          "name": "_from",
          "type": "address"
        },
        {
          "name": "_to",
          "type": "address"
        },
        {
          "name": "_value",
          "type": "uint256"
        }
      ],
      "name": "transferFrom",
      "outputs": [
        {
          "name": "success",
          "type": "bool"
        }
      ],
      "payable": false,
      "stateMutability": "nonpayable",
      "type": "function"
    },
    {
      "constant": true,
      "inputs": [],
      "name": "decimals",
      "outputs": [
        {
          "name": "",
          "type": "uint8"
        }
      ],
      "payable": false,
      "stateMutability": "view",
      "type": "function"
    },
    {
      "constant": false,
      "inputs": [
        {
          "name": "_fromId",
          "type": "uint256"
        },
        {
          "name": "_spender",
          "type": "address"
        },
        {
          "name": "_toId",
          "type": "uint256"
        },
        {
          "name": "_value",
          "type": "uint256"
        }
      ],
      "name": "approveFrom",
      "outputs": [
        {
          "name": "success",
          "type": "bool"
        }
      ],
      "payable": false,
      "stateMutability": "nonpayable",
      "type": "function"
    },
    {
      "constant": true,
      "inputs": [],
      "name": "version",
      "outputs": [
        {
          "name": "",
          "type": "string"
        }
      ],
      "payable": false,
      "stateMutability": "view",
      "type": "function"
    },
    {
      "constant": false,
      "inputs": [
        {
          "name": "_token",
          "type": "address"
        },
        {
          "name": "_to",
          "type": "address"
        },
        {
          "name": "_amount",
          "type": "uint256"
        }
      ],
      "name": "withdrawTokens",
      "outputs": [],
      "payable": false,
      "stateMutability": "nonpayable",
      "type": "function"
    },
    {
      "constant": true,
      "inputs": [
        {
          "name": "_owner",
          "type": "address"
        }
      ],
      "name": "balanceOf",
      "outputs": [
        {
          "name": "",
          "type": "uint256"
        }
      ],
      "payable": false,
      "stateMutability": "view",
      "type": "function"
    },
    {
      "constant": false,
      "inputs": [],
      "name": "acceptOwnership",
      "outputs": [],
      "payable": false,
      "stateMutability": "nonpayable",
      "type": "function"
    },
    {
      "constant": false,
      "inputs": [
        {
          "name": "_to",
          "type": "address"
        },
        {
          "name": "_amount",
          "type": "uint256"
        }
      ],
      "name": "issue",
      "outputs": [],
      "payable": false,
      "stateMutability": "nonpayable",
      "type": "function"
    },
    {
      "constant": true,
      "inputs": [],
      "name": "owner",
      "outputs": [
        {
          "name": "",
          "type": "address"
        }
      ],
      "payable": false,
      "stateMutability": "view",
      "type": "function"
    },
    {
      "constant": true,
      "inputs": [],
      "name": "symbol",
      "outputs": [
        {
          "name": "",
          "type": "string"
        }
      ],
      "payable": false,
      "stateMutability": "view",
      "type": "function"
    },
    {
      "constant": false,
      "inputs": [
        {
          "name": "_from",
          "type": "address"
        },
        {
          "name": "_fromId",
          "type": "uint256"
        },
        {
          "name": "_amount",
          "type": "uint256"
        }
      ],
      "name": "destroyFrom",
      "outputs": [],
      "payable": false,
      "stateMutability": "nonpayable",
      "type": "function"
    },
    {
      "constant": false,
      "inputs": [
        {
          "name": "_from",
          "type": "address"
        },
        {
          "name": "_amount",
          "type": "uint256"
        }
      ],
      "name": "destroy",
      "outputs": [],
      "payable": false,
      "stateMutability": "nonpayable",
      "type": "function"
    },
    {
      "constant": false,
      "inputs": [
        {
          "name": "_to",
          "type": "address"
        },
        {
          "name": "_value",
          "type": "uint256"
        }
      ],
      "name": "transfer",
      "outputs": [
        {
          "name": "success",
          "type": "bool"
        }
      ],
      "payable": false,
      "stateMutability": "nonpayable",
      "type": "function"
    },
    {
      "constant": false,
      "inputs": [
        {
          "name": "_to",
          "type": "address"
        },
        {
          "name": "_toId",
          "type": "uint256"
        },
        {
          "name": "_amount",
          "type": "uint256"
        }
      ],
      "name": "issueTo",
      "outputs": [],
      "payable": false,
      "stateMutability": "nonpayable",
      "type": "function"
    },
    {
      "constant": true,
      "inputs": [],
      "name": "transfersEnabled",
      "outputs": [
        {
          "name": "",
          "type": "bool"
        }
      ],
      "payable": false,
      "stateMutability": "view",
      "type": "function"
    },
    {
      "constant": true,
      "inputs": [],
      "name": "newOwner",
      "outputs": [
        {
          "name": "",
          "type": "address"
        }
      ],
      "payable": false,
      "stateMutability": "view",
      "type": "function"
    },
    {
      "constant": true,
      "inputs": [
        {
          "name": "_owner",
          "type": "address"
        },
        {
          "name": "_spender",
          "type": "address"
        }
      ],
      "name": "allowance",
      "outputs": [
        {
          "name": "",
          "type": "uint256"
        }
      ],
      "payable": false,
      "stateMutability": "view",
      "type": "function"
    },
    {
      "constant": false,
      "inputs": [
        {
          "name": "_newOwner",
          "type": "address"
        }
      ],
      "name": "transferOwnership",
      "outputs": [],
      "payable": false,
      "stateMutability": "nonpayable",
      "type": "function"
    },
    {
      "constant": true,
      "inputs": [],
      "name": "controller",
      "outputs": [
        {
          "name": "",
          "type": "address"
        }
      ],
      "payable": false,
      "stateMutability": "view",
      "type": "function"
    },
    {
      "inputs": [
        {
          "name": "_controller",
          "type": "address"
        }
      ],
      "payable": false,
      "stateMutability": "nonpayable",
      "type": "constructor"
    },
    {
      "anonymous": false,
      "inputs": [
        {
          "indexed": false,
          "name": "_token",
          "type": "address"
        }
      ],
      "name": "NewSmartToken",
      "type": "event"
    },
    {
      "anonymous": false,
      "inputs": [
        {
          "indexed": false,
          "name": "_amount",
          "type": "uint256"
        }
      ],
      "name": "Issuance",
      "type": "event"
    },
    {
      "anonymous": false,
      "inputs": [
        {
          "indexed": false,
          "name": "_amount",
          "type": "uint256"
        }
      ],
      "name": "Destruction",
      "type": "event"
    },
    {
      "anonymous": false,
      "inputs": [
        {
          "indexed": true,
          "name": "_prevOwner",
          "type": "address"
        },
        {
          "indexed": true,
          "name": "_newOwner",
          "type": "address"
        }
      ],
      "name": "OwnerUpdate",
      "type": "event"
    },
    {
      "anonymous": false,
      "inputs": [
        {
          "indexed": true,
          "name": "_from",
          "type": "address"
        },
        {
          "indexed": true,
          "name": "_to",
          "type": "address"
        },
        {
          "indexed": false,
          "name": "_value",
          "type": "uint256"
        }
      ],
      "name": "Transfer",
      "type": "event"
    },
    {
      "anonymous": false,
      "inputs": [
        {
          "indexed": true,
          "name": "_owner",
          "type": "address"
        },
        {
          "indexed": true,
          "name": "_spender",
          "type": "address"
        },
        {
          "indexed": false,
          "name": "_value",
          "type": "uint256"
        }
      ],
      "name": "Approval",
      "type": "event"
    }
  ],
  "bytecode": "0x60606040526040805190810160405280600381526020017f302e330000000000000000000000000000000000000000000000000000000000815250600390805190602001906200005192919062000183565b506001600460006101000a81548160ff02191690831515021790555034156200007957600080fd5b60405160208062002a648339810160405280805190602001909190505080336000806101000a81548173ffffffffffffffffffffffffffffffffffffffff021916908373ffffffffffffffffffffffffffffffffffffffff16021790555080600260006101000a81548173ffffffffffffffffffffffffffffffffffffffff021916908373ffffffffffffffffffffffffffffffffffffffff160217905550507ff4cd1f8571e8d9c97ffcb81558807ab73f9803d54de5da6a0420593c82a4a9f030604051808273ffffffffffffffffffffffffffffffffffffffff1673ffffffffffffffffffffffffffffffffffffffff16815260200191505060405180910390a15062000232565b828054600181600116156101000203166002900490600052602060002090601f016020900481019282601f10620001c657805160ff1916838001178555620001f7565b82800160010185558215620001f7579182015b82811115620001f6578251825591602001919060010190620001d9565b5b5090506200020691906200020a565b5090565b6200022f91905b808211156200022b57600081600090555060010162000211565b5090565b90565b61282280620002426000396000f300606060405260043610610133576000357c0100000000000000000000000000000000000000000000000000000000900463ffffffff16806306fdde0314610138578063095ea7b3146101c65780631608f18f1461022057806318160ddd1461024557806323b872dd1461026e578063313ce567146102e75780634471fb2b1461031657806354fd4d50146103825780635e35359e1461041057806370a082311461047157806379ba5097146104be578063867904b4146104d35780638da5cb5b1461051557806395d89b411461056a5780639c560917146105f8578063a24835d114610643578063a9059cbb14610685578063adecbae0146106df578063bef97c871461072a578063d4ee1d9014610757578063dd62ed3e146107ac578063f2fde38b14610818578063f77c479114610851575b600080fd5b341561014357600080fd5b61014b6108a6565b6040518080602001828103825283818151815260200191508051906020019080838360005b8381101561018b578082015181840152602081019050610170565b50505050905090810190601f1680156101b85780820380516001836020036101000a031916815260200191505b509250505060405180910390f35b34156101d157600080fd5b610206600480803573ffffffffffffffffffffffffffffffffffffffff169060200190919080359060200190919050506109e0565b604051808215151515815260200191505060405180910390f35b341561022b57600080fd5b61024360048080351515906020019091905050610b7b565b005b341561025057600080fd5b610258610bf1565b6040518082815260200191505060405180910390f35b341561027957600080fd5b6102cd600480803573ffffffffffffffffffffffffffffffffffffffff1690602001909190803573ffffffffffffffffffffffffffffffffffffffff16906020019091908035906020019091905050610cfe565b604051808215151515815260200191505060405180910390f35b34156102f257600080fd5b6102fa610d36565b604051808260ff1660ff16815260200191505060405180910390f35b341561032157600080fd5b610368600480803590602001909190803573ffffffffffffffffffffffffffffffffffffffff16906020019091908035906020019091908035906020019091905050610e43565b604051808215151515815260200191505060405180910390f35b341561038d57600080fd5b61039561101f565b6040518080602001828103825283818151815260200191508051906020019080838360005b838110156103d55780820151818401526020810190506103ba565b50505050905090810190601f1680156104025780820380516001836020036101000a031916815260200191505b509250505060405180910390f35b341561041b57600080fd5b61046f600480803573ffffffffffffffffffffffffffffffffffffffff1690602001909190803573ffffffffffffffffffffffffffffffffffffffff169060200190919080359060200190919050506110bd565b005b341561047c57600080fd5b6104a8600480803573ffffffffffffffffffffffffffffffffffffffff169060200190919050506112a1565b6040518082815260200191505060405180910390f35b34156104c957600080fd5b6104d1611423565b005b34156104de57600080fd5b610513600480803573ffffffffffffffffffffffffffffffffffffffff169060200190919080359060200190919050506115c2565b005b341561052057600080fd5b610528611816565b604051808273ffffffffffffffffffffffffffffffffffffffff1673ffffffffffffffffffffffffffffffffffffffff16815260200191505060405180910390f35b341561057557600080fd5b61057d61183b565b6040518080602001828103825283818151815260200191508051906020019080838360005b838110156105bd5780820151818401526020810190506105a2565b50505050905090810190601f1680156105ea5780820380516001836020036101000a031916815260200191505b509250505060405180910390f35b341561060357600080fd5b610641600480803573ffffffffffffffffffffffffffffffffffffffff16906020019091908035906020019091908035906020019091905050611975565b005b341561064e57600080fd5b610683600480803573ffffffffffffffffffffffffffffffffffffffff16906020019091908035906020019091905050611b87565b005b341561069057600080fd5b6106c5600480803573ffffffffffffffffffffffffffffffffffffffff16906020019091908035906020019091905050611d99565b604051808215151515815260200191505060405180910390f35b34156106ea57600080fd5b610728600480803573ffffffffffffffffffffffffffffffffffffffff16906020019091908035906020019091908035906020019091905050611dcf565b005b341561073557600080fd5b61073d612023565b604051808215151515815260200191505060405180910390f35b341561076257600080fd5b61076a612036565b604051808273ffffffffffffffffffffffffffffffffffffffff1673ffffffffffffffffffffffffffffffffffffffff16815260200191505060405180910390f35b34156107b757600080fd5b610802600480803573ffffffffffffffffffffffffffffffffffffffff1690602001909190803573ffffffffffffffffffffffffffffffffffffffff1690602001909190505061205c565b6040518082815260200191505060405180910390f35b341561082357600080fd5b61084f600480803573ffffffffffffffffffffffffffffffffffffffff1690602001909190505061224f565b005b341561085c57600080fd5b610864612347565b604051808273ffffffffffffffffffffffffffffffffffffffff1673ffffffffffffffffffffffffffffffffffffffff16815260200191505060405180910390f35b6108ae6127b7565b6108b66127cb565b60008073ffffffffffffffffffffffffffffffffffffffff16600260009054906101000a900473ffffffffffffffffffffffffffffffffffffffff1673ffffffffffffffffffffffffffffffffffffffff161415151561091557600080fd5b600260009054906101000a900473ffffffffffffffffffffffffffffffffffffffff1673ffffffffffffffffffffffffffffffffffffffff1663b97e2785600060405160a001526040518163ffffffff167c010000000000000000000000000000000000000000000000000000000002815260040160a060405180830381600087803b15156109a357600080fd5b6102c65a03f115156109b457600080fd5b5050506040518060800180519060200160405280925081935050506109d9828261236d565b9250505090565b60008073ffffffffffffffffffffffffffffffffffffffff16600260009054906101000a900473ffffffffffffffffffffffffffffffffffffffff1673ffffffffffffffffffffffffffffffffffffffff1614151515610a3f57600080fd5b600073ffffffffffffffffffffffffffffffffffffffff168373ffffffffffffffffffffffffffffffffffffffff1614151515610a7b57600080fd5b60008214151515610a8b57600080fd5b600260009054906101000a900473ffffffffffffffffffffffffffffffffffffffff1673ffffffffffffffffffffffffffffffffffffffff166332c4ee8384846000604051602001526040518363ffffffff167c0100000000000000000000000000000000000000000000000000000000028152600401808373ffffffffffffffffffffffffffffffffffffffff1673ffffffffffffffffffffffffffffffffffffffff16815260200182815260200192505050602060405180830381600087803b1515610b5857600080fd5b6102c65a03f11515610b6957600080fd5b50505060405180519050905092915050565b6000809054906101000a900473ffffffffffffffffffffffffffffffffffffffff1673ffffffffffffffffffffffffffffffffffffffff163373ffffffffffffffffffffffffffffffffffffffff16141515610bd357fe5b8015600460006101000a81548160ff02191690831515021790555050565b60008073ffffffffffffffffffffffffffffffffffffffff16600260009054906101000a900473ffffffffffffffffffffffffffffffffffffffff1673ffffffffffffffffffffffffffffffffffffffff1614151515610c5057600080fd5b600260009054906101000a900473ffffffffffffffffffffffffffffffffffffffff1673ffffffffffffffffffffffffffffffffffffffff16638f1fc77c6000604051602001526040518163ffffffff167c0100000000000000000000000000000000000000000000000000000000028152600401602060405180830381600087803b1515610cde57600080fd5b6102c65a03f11515610cef57600080fd5b50505060405180519050905090565b6000600460009054906101000a900460ff161515610d1857fe5b610d238484846123c5565b1515610d2b57fe5b600190509392505050565b60008073ffffffffffffffffffffffffffffffffffffffff16600260009054906101000a900473ffffffffffffffffffffffffffffffffffffffff1673ffffffffffffffffffffffffffffffffffffffff1614151515610d9557600080fd5b600260009054906101000a900473ffffffffffffffffffffffffffffffffffffffff1673ffffffffffffffffffffffffffffffffffffffff1663fea329f26000604051602001526040518163ffffffff167c0100000000000000000000000000000000000000000000000000000000028152600401602060405180830381600087803b1515610e2357600080fd5b6102c65a03f11515610e3457600080fd5b50505060405180519050905090565b60008073ffffffffffffffffffffffffffffffffffffffff16600260009054906101000a900473ffffffffffffffffffffffffffffffffffffffff1673ffffffffffffffffffffffffffffffffffffffff1614151515610ea257600080fd5b60008514151515610eb257600080fd5b600073ffffffffffffffffffffffffffffffffffffffff168473ffffffffffffffffffffffffffffffffffffffff1614151515610eee57600080fd5b60008314151515610efe57600080fd5b60008214151515610f0e57600080fd5b828514151515610f1d57600080fd5b600260009054906101000a900473ffffffffffffffffffffffffffffffffffffffff1673ffffffffffffffffffffffffffffffffffffffff166398dc5c95868686866000604051602001526040518563ffffffff167c0100000000000000000000000000000000000000000000000000000000028152600401808581526020018473ffffffffffffffffffffffffffffffffffffffff1673ffffffffffffffffffffffffffffffffffffffff168152602001838152602001828152602001945050505050602060405180830381600087803b1515610ffa57600080fd5b6102c65a03f1151561100b57600080fd5b505050604051805190509050949350505050565b60038054600181600116156101000203166002900480601f0160208091040260200160405190810160405280929190818152602001828054600181600116156101000203166002900480156110b55780601f1061108a576101008083540402835291602001916110b5565b820191906000526020600020905b81548152906001019060200180831161109857829003601f168201915b505050505081565b6000809054906101000a900473ffffffffffffffffffffffffffffffffffffffff1673ffffffffffffffffffffffffffffffffffffffff163373ffffffffffffffffffffffffffffffffffffffff1614151561111557fe5b82600073ffffffffffffffffffffffffffffffffffffffff168173ffffffffffffffffffffffffffffffffffffffff161415151561115257600080fd5b82600073ffffffffffffffffffffffffffffffffffffffff168173ffffffffffffffffffffffffffffffffffffffff161415151561118f57600080fd5b833073ffffffffffffffffffffffffffffffffffffffff168173ffffffffffffffffffffffffffffffffffffffff16141515156111cb57600080fd5b8573ffffffffffffffffffffffffffffffffffffffff1663a9059cbb86866000604051602001526040518363ffffffff167c0100000000000000000000000000000000000000000000000000000000028152600401808373ffffffffffffffffffffffffffffffffffffffff1673ffffffffffffffffffffffffffffffffffffffff16815260200182815260200192505050602060405180830381600087803b151561127657600080fd5b6102c65a03f1151561128757600080fd5b50505060405180519050151561129957fe5b505050505050565b60008073ffffffffffffffffffffffffffffffffffffffff16600260009054906101000a900473ffffffffffffffffffffffffffffffffffffffff1673ffffffffffffffffffffffffffffffffffffffff161415151561130057600080fd5b600073ffffffffffffffffffffffffffffffffffffffff168273ffffffffffffffffffffffffffffffffffffffff161415151561133c57600080fd5b600260009054906101000a900473ffffffffffffffffffffffffffffffffffffffff1673ffffffffffffffffffffffffffffffffffffffff1663b1357079836000604051602001526040518263ffffffff167c0100000000000000000000000000000000000000000000000000000000028152600401808273ffffffffffffffffffffffffffffffffffffffff1673ffffffffffffffffffffffffffffffffffffffff168152602001915050602060405180830381600087803b151561140157600080fd5b6102c65a03f1151561141257600080fd5b505050604051805190509050919050565b600160009054906101000a900473ffffffffffffffffffffffffffffffffffffffff1673ffffffffffffffffffffffffffffffffffffffff163373ffffffffffffffffffffffffffffffffffffffff1614151561147f57600080fd5b600160009054906101000a900473ffffffffffffffffffffffffffffffffffffffff1673ffffffffffffffffffffffffffffffffffffffff166000809054906101000a900473ffffffffffffffffffffffffffffffffffffffff1673ffffffffffffffffffffffffffffffffffffffff167f343765429aea5a34b3ff6a3785a98a5abb2597aca87bfbb58632c173d585373a60405160405180910390a3600160009054906101000a900473ffffffffffffffffffffffffffffffffffffffff166000806101000a81548173ffffffffffffffffffffffffffffffffffffffff021916908373ffffffffffffffffffffffffffffffffffffffff1602179055506000600160006101000a81548173ffffffffffffffffffffffffffffffffffffffff021916908373ffffffffffffffffffffffffffffffffffffffff160217905550565b6000809054906101000a900473ffffffffffffffffffffffffffffffffffffffff1673ffffffffffffffffffffffffffffffffffffffff163373ffffffffffffffffffffffffffffffffffffffff1614151561161a57fe5b81600073ffffffffffffffffffffffffffffffffffffffff168173ffffffffffffffffffffffffffffffffffffffff161415151561165757600080fd5b823073ffffffffffffffffffffffffffffffffffffffff168173ffffffffffffffffffffffffffffffffffffffff161415151561169357600080fd5b600260009054906101000a900473ffffffffffffffffffffffffffffffffffffffff1673ffffffffffffffffffffffffffffffffffffffff1663545c3d55856000866040518463ffffffff167c0100000000000000000000000000000000000000000000000000000000028152600401808473ffffffffffffffffffffffffffffffffffffffff1673ffffffffffffffffffffffffffffffffffffffff1681526020018381526020018281526020019350505050600060405180830381600087803b151561176057600080fd5b6102c65a03f1151561177157600080fd5b5050507f9386c90217c323f58030f9dadcbc938f807a940f4ff41cd4cead9562f5da7dc3836040518082815260200191505060405180910390a18373ffffffffffffffffffffffffffffffffffffffff163073ffffffffffffffffffffffffffffffffffffffff167fddf252ad1be2c89b69c2b068fc378daa952ba7f163c4a11628f55a4df523b3ef856040518082815260200191505060405180910390a350505050565b6000809054906101000a900473ffffffffffffffffffffffffffffffffffffffff1681565b6118436127b7565b61184b6127cb565b60008073ffffffffffffffffffffffffffffffffffffffff16600260009054906101000a900473ffffffffffffffffffffffffffffffffffffffff1673ffffffffffffffffffffffffffffffffffffffff16141515156118aa57600080fd5b600260009054906101000a900473ffffffffffffffffffffffffffffffffffffffff1673ffffffffffffffffffffffffffffffffffffffff16633a34b653600060405160a001526040518163ffffffff167c010000000000000000000000000000000000000000000000000000000002815260040160a060405180830381600087803b151561193857600080fd5b6102c65a03f1151561194957600080fd5b50505060405180608001805190602001604052809250819350505061196e828261236d565b9250505090565b8273ffffffffffffffffffffffffffffffffffffffff163373ffffffffffffffffffffffffffffffffffffffff1614806119fb57506000809054906101000a900473ffffffffffffffffffffffffffffffffffffffff1673ffffffffffffffffffffffffffffffffffffffff163373ffffffffffffffffffffffffffffffffffffffff16145b1515611a0657600080fd5b600260009054906101000a900473ffffffffffffffffffffffffffffffffffffffff1673ffffffffffffffffffffffffffffffffffffffff16634cabcfac8484846040518463ffffffff167c0100000000000000000000000000000000000000000000000000000000028152600401808473ffffffffffffffffffffffffffffffffffffffff1673ffffffffffffffffffffffffffffffffffffffff1681526020018381526020018281526020019350505050600060405180830381600087803b1515611ad257600080fd5b6102c65a03f11515611ae357600080fd5b5050503073ffffffffffffffffffffffffffffffffffffffff168373ffffffffffffffffffffffffffffffffffffffff167fddf252ad1be2c89b69c2b068fc378daa952ba7f163c4a11628f55a4df523b3ef836040518082815260200191505060405180910390a37f9a1b418bc061a5d80270261562e6986a35d995f8051145f277be16103abd3453816040518082815260200191505060405180910390a1505050565b8173ffffffffffffffffffffffffffffffffffffffff163373ffffffffffffffffffffffffffffffffffffffff161480611c0d57506000809054906101000a900473ffffffffffffffffffffffffffffffffffffffff1673ffffffffffffffffffffffffffffffffffffffff163373ffffffffffffffffffffffffffffffffffffffff16145b1515611c1857600080fd5b600260009054906101000a900473ffffffffffffffffffffffffffffffffffffffff1673ffffffffffffffffffffffffffffffffffffffff16634cabcfac836000846040518463ffffffff167c0100000000000000000000000000000000000000000000000000000000028152600401808473ffffffffffffffffffffffffffffffffffffffff1673ffffffffffffffffffffffffffffffffffffffff1681526020018381526020018281526020019350505050600060405180830381600087803b1515611ce557600080fd5b6102c65a03f11515611cf657600080fd5b5050503073ffffffffffffffffffffffffffffffffffffffff168273ffffffffffffffffffffffffffffffffffffffff167fddf252ad1be2c89b69c2b068fc378daa952ba7f163c4a11628f55a4df523b3ef836040518082815260200191505060405180910390a37f9a1b418bc061a5d80270261562e6986a35d995f8051145f277be16103abd3453816040518082815260200191505060405180910390a15050565b6000600460009054906101000a900460ff161515611db357fe5b611dbd83836125d1565b1515611dc557fe5b6001905092915050565b6000809054906101000a900473ffffffffffffffffffffffffffffffffffffffff1673ffffffffffffffffffffffffffffffffffffffff163373ffffffffffffffffffffffffffffffffffffffff16141515611e2757fe5b82600073ffffffffffffffffffffffffffffffffffffffff168173ffffffffffffffffffffffffffffffffffffffff1614151515611e6457600080fd5b833073ffffffffffffffffffffffffffffffffffffffff168173ffffffffffffffffffffffffffffffffffffffff1614151515611ea057600080fd5b600260009054906101000a900473ffffffffffffffffffffffffffffffffffffffff1673ffffffffffffffffffffffffffffffffffffffff1663545c3d558686866040518463ffffffff167c0100000000000000000000000000000000000000000000000000000000028152600401808473ffffffffffffffffffffffffffffffffffffffff1673ffffffffffffffffffffffffffffffffffffffff1681526020018381526020018281526020019350505050600060405180830381600087803b1515611f6c57600080fd5b6102c65a03f11515611f7d57600080fd5b5050507f9386c90217c323f58030f9dadcbc938f807a940f4ff41cd4cead9562f5da7dc3836040518082815260200191505060405180910390a18473ffffffffffffffffffffffffffffffffffffffff163073ffffffffffffffffffffffffffffffffffffffff167fddf252ad1be2c89b69c2b068fc378daa952ba7f163c4a11628f55a4df523b3ef856040518082815260200191505060405180910390a35050505050565b600460009054906101000a900460ff1681565b600160009054906101000a900473ffffffffffffffffffffffffffffffffffffffff1681565b60008073ffffffffffffffffffffffffffffffffffffffff16600260009054906101000a900473ffffffffffffffffffffffffffffffffffffffff1673ffffffffffffffffffffffffffffffffffffffff16141515156120bb57600080fd5b600073ffffffffffffffffffffffffffffffffffffffff168373ffffffffffffffffffffffffffffffffffffffff16141515156120f757600080fd5b600073ffffffffffffffffffffffffffffffffffffffff168273ffffffffffffffffffffffffffffffffffffffff161415151561213357600080fd5b600260009054906101000a900473ffffffffffffffffffffffffffffffffffffffff1673ffffffffffffffffffffffffffffffffffffffff1663f81fd7ea84846000604051602001526040518363ffffffff167c0100000000000000000000000000000000000000000000000000000000028152600401808373ffffffffffffffffffffffffffffffffffffffff1673ffffffffffffffffffffffffffffffffffffffff1681526020018273ffffffffffffffffffffffffffffffffffffffff1673ffffffffffffffffffffffffffffffffffffffff16815260200192505050602060405180830381600087803b151561222c57600080fd5b6102c65a03f1151561223d57600080fd5b50505060405180519050905092915050565b6000809054906101000a900473ffffffffffffffffffffffffffffffffffffffff1673ffffffffffffffffffffffffffffffffffffffff163373ffffffffffffffffffffffffffffffffffffffff161415156122a757fe5b6000809054906101000a900473ffffffffffffffffffffffffffffffffffffffff1673ffffffffffffffffffffffffffffffffffffffff168173ffffffffffffffffffffffffffffffffffffffff161415151561230357600080fd5b80600160006101000a81548173ffffffffffffffffffffffffffffffffffffffff021916908373ffffffffffffffffffffffffffffffffffffffff16021790555050565b600260009054906101000a900473ffffffffffffffffffffffffffffffffffffffff1681565b6123756127b7565b61237d6127b7565b6000808460405180591061238e5750595b9080825280601f01601f191660200182016040525092506020830191508590506123b982828761276c565b82935050505092915050565b60008073ffffffffffffffffffffffffffffffffffffffff16600260009054906101000a900473ffffffffffffffffffffffffffffffffffffffff1673ffffffffffffffffffffffffffffffffffffffff161415151561242457600080fd5b600073ffffffffffffffffffffffffffffffffffffffff168373ffffffffffffffffffffffffffffffffffffffff161415151561246057600080fd5b600073ffffffffffffffffffffffffffffffffffffffff168473ffffffffffffffffffffffffffffffffffffffff161415151561249c57600080fd5b600082141515156124ac57600080fd5b600260009054906101000a900473ffffffffffffffffffffffffffffffffffffffff1673ffffffffffffffffffffffffffffffffffffffff1663bf6226658585856000604051602001526040518463ffffffff167c0100000000000000000000000000000000000000000000000000000000028152600401808473ffffffffffffffffffffffffffffffffffffffff1673ffffffffffffffffffffffffffffffffffffffff1681526020018373ffffffffffffffffffffffffffffffffffffffff1673ffffffffffffffffffffffffffffffffffffffff1681526020018281526020019350505050602060405180830381600087803b15156125ad57600080fd5b6102c65a03f115156125be57600080fd5b5050506040518051905090509392505050565b60008073ffffffffffffffffffffffffffffffffffffffff16600260009054906101000a900473ffffffffffffffffffffffffffffffffffffffff1673ffffffffffffffffffffffffffffffffffffffff161415151561263057600080fd5b600073ffffffffffffffffffffffffffffffffffffffff168373ffffffffffffffffffffffffffffffffffffffff161415151561266c57600080fd5b6000821415151561267c57600080fd5b600260009054906101000a900473ffffffffffffffffffffffffffffffffffffffff1673ffffffffffffffffffffffffffffffffffffffff166366d80ba584846000604051602001526040518363ffffffff167c0100000000000000000000000000000000000000000000000000000000028152600401808373ffffffffffffffffffffffffffffffffffffffff1673ffffffffffffffffffffffffffffffffffffffff16815260200182815260200192505050602060405180830381600087803b151561274957600080fd5b6102c65a03f1151561275a57600080fd5b50505060405180519050905092915050565b60005b602082101515612794578251845260208401935060208301925060208203915061276f565b6001826020036101000a0390508019835116818551168181178652505050505050565b602060405190810160405280600081525090565b6080604051908101604052806004905b60008019168152602001906001900390816127db57905050905600a165627a7a72305820dddc0d10e96b6107030a461c30a66b065740f4996defb261c0100596b54d34640029",
  "source": "pragma solidity ^0.4.18;\nimport './ERC20Adapter.sol';\nimport './ERC20Controller.sol';\nimport './TokenHolder.sol';\nimport './Owned.sol';\nimport './interfaces/ISmartTokenAdapter.sol';\n\n/*\n    Smart Token Adapter v0.3\n\n    'Owned' is specified here for readability reasons\n*/\ncontract SmartTokenAdapter is ISmartTokenAdapter, Owned, ERC20Adapter, TokenHolder {\n    string public version = \"0.3\";\n\n    bool public transfersEnabled = true;    // true if transfer/transferFrom are enabled, false if not\n\n    // triggered when a smart token is deployed - the _token address is defined for forward compatibility, in case we want to trigger the event from a factory\n    event NewSmartToken(address _token);\n    // triggered when the total supply is increased\n    event Issuance(uint256 _amount);\n    // triggered when the total supply is decreased\n    event Destruction(uint256 _amount);\n\n    /**\n        @dev constructor\n\n        @param _controller ERC20 Controller\n    */\n    function SmartTokenAdapter(ERC20Controller _controller)\n        public\n        ERC20Adapter(_controller)\n    {\n        NewSmartToken(address(this));\n    }\n\n    // allows execution only when transfers aren't disabled\n    modifier transfersAllowed {\n        assert(transfersEnabled);\n        _;\n    }\n\n    /**\n        @dev disables/enables transfers\n        can only be called by the contract owner\n\n        @param _disable    true to disable transfers, false to enable them\n    */\n    function disableTransfers(bool _disable) public ownerOnly {\n        transfersEnabled = !_disable;\n    }\n\n    /**\n        @dev increases the token supply and sends the new tokens to an account\n        can only be called by the contract owner\n\n        @param _to         account to receive the new amount\n        @param _amount     amount to increase the supply by\n    */\n    function issue(address _to, uint256 _amount)\n        public\n        ownerOnly\n        validAddress(_to)\n        notThis(_to)\n    {\n        controller.cIssue(_to, uint256(0), _amount);\n\n        Issuance(_amount);\n        Transfer(this, _to, _amount);\n    }\n\n    /**\n        @dev increases the token supply and sends the new tokens to an account\n        can only be called by the contract owner\n\n        @param _to         account to receive the new amount\n        @param _toId       NFT token id to receive the new amount\n        @param _amount     amount to increase the supply by\n    */\n    function issueTo(address _to, uint256 _toId, uint256 _amount)\n        public\n        ownerOnly\n        validAddress(_to)\n        notThis(_to)\n    {\n        controller.cIssue(_to, _toId, _amount);\n\n        Issuance(_amount);\n        Transfer(this, _to, _amount);\n    }\n\n    /**\n        @dev removes tokens from an account and decreases the token supply\n        can be called by the contract owner to destroy tokens from any account or by any holder to destroy tokens from his/her own account\n\n        @param _from       account to remove the amount from\n        @param _amount     amount to decrease the supply by\n    */\n    function destroy(address _from, uint256 _amount) public {\n        require(msg.sender == _from || msg.sender == owner); // validate input\n\n        controller.cDestroy(_from, uint256(0), _amount);\n\n        Transfer(_from, this, _amount);\n        Destruction(_amount);\n    }\n    /**\n        @dev removes tokens from an account and decreases the token supply\n        can be called by the contract owner to destroy tokens from any account or by any holder to destroy tokens from his/her own account\n\n        @param _from       account to remove the amount from\n        @param _fromId     NFT token id to remove the amount from\n        @param _amount     amount to decrease the supply by\n    */\n    function destroyFrom(address _from, uint256 _fromId, uint256 _amount) public {\n        require(msg.sender == _from || msg.sender == owner); // validate input\n\n        controller.cDestroy(_from, _fromId, _amount);\n\n        Transfer(_from, this, _amount);\n        Destruction(_amount);\n    }\n\n    // ERC20 standard method overrides with some extra functionality\n\n    /**\n        @dev send coins\n        throws on any error rather then return a false flag to minimize user errors\n        in addition to the standard checks, the function throws if transfers are disabled\n\n        @param _to      target address\n        @param _value   transfer amount\n\n        @return true if the transfer was successful, false if it wasn't\n    */\n    function transfer(address _to, uint256 _value) public transfersAllowed returns (bool success) {\n        assert(super.transfer(_to, _value));\n        return true;\n    }\n\n    /**\n        @dev an account/contract attempts to get the coins\n        throws on any error rather then return a false flag to minimize user errors\n        in addition to the standard checks, the function throws if transfers are disabled\n\n        @param _from    source address\n        @param _to      target address\n        @param _value   transfer amount\n\n        @return true if the transfer was successful, false if it wasn't\n    */\n    function transferFrom(address _from, address _to, uint256 _value) public transfersAllowed returns (bool success) {\n        assert(super.transferFrom(_from, _to, _value));\n        return true;\n    }\n}",
  "sourcePath": "/Users/sergei/todos/private/contracts/SmartTokenAdapter.sol",
  "compiler": {
    "name": "solc",
    "version": "0.4.18+commit.9cf6e910.Emscripten.clang"
  },
  "schemaVersion": "1.0.1",
  "updatedAt": "2018-03-24T05:42:40.012Z"
}